{
  "_format": "hh-sol-artifact-1",
  "contractName": "BoxSpace",
  "sourceName": "contracts/BoxSpace.sol",
  "abi": [
    {
      "inputs": [],
      "stateMutability": "nonpayable",
      "type": "constructor"
    },
    {
      "anonymous": false,
      "inputs": [
        {
          "indexed": true,
          "internalType": "address",
          "name": "account",
          "type": "address"
        },
        {
          "indexed": true,
          "internalType": "address",
          "name": "operator",
          "type": "address"
        },
        {
          "indexed": false,
          "internalType": "bool",
          "name": "approved",
          "type": "bool"
        }
      ],
      "name": "ApprovalForAll",
      "type": "event"
    },
    {
      "anonymous": false,
      "inputs": [
        {
          "indexed": false,
          "internalType": "uint256",
          "name": "boxId",
          "type": "uint256"
        },
        {
          "indexed": false,
          "internalType": "uint256",
          "name": "buyAmount",
          "type": "uint256"
        },
        {
          "indexed": false,
          "internalType": "uint256",
          "name": "boxTokenReceived",
          "type": "uint256"
        }
      ],
      "name": "Buy",
      "type": "event"
    },
    {
      "anonymous": false,
      "inputs": [
        {
          "indexed": false,
          "internalType": "uint256",
          "name": "boxId",
          "type": "uint256"
        },
        {
          "indexed": false,
          "internalType": "uint256",
          "name": "sellAmount",
          "type": "uint256"
        },
        {
          "indexed": false,
          "internalType": "uint256",
          "name": "amountReceived",
          "type": "uint256"
        }
      ],
      "name": "Sell",
      "type": "event"
    },
    {
      "anonymous": false,
      "inputs": [
        {
          "indexed": true,
          "internalType": "address",
          "name": "operator",
          "type": "address"
        },
        {
          "indexed": true,
          "internalType": "address",
          "name": "from",
          "type": "address"
        },
        {
          "indexed": true,
          "internalType": "address",
          "name": "to",
          "type": "address"
        },
        {
          "indexed": false,
          "internalType": "uint256[]",
          "name": "ids",
          "type": "uint256[]"
        },
        {
          "indexed": false,
          "internalType": "uint256[]",
          "name": "values",
          "type": "uint256[]"
        }
      ],
      "name": "TransferBatch",
      "type": "event"
    },
    {
      "anonymous": false,
      "inputs": [
        {
          "indexed": true,
          "internalType": "address",
          "name": "operator",
          "type": "address"
        },
        {
          "indexed": true,
          "internalType": "address",
          "name": "from",
          "type": "address"
        },
        {
          "indexed": true,
          "internalType": "address",
          "name": "to",
          "type": "address"
        },
        {
          "indexed": false,
          "internalType": "uint256",
          "name": "id",
          "type": "uint256"
        },
        {
          "indexed": false,
          "internalType": "uint256",
          "name": "value",
          "type": "uint256"
        }
      ],
      "name": "TransferSingle",
      "type": "event"
    },
    {
      "anonymous": false,
      "inputs": [
        {
          "indexed": false,
          "internalType": "string",
          "name": "value",
          "type": "string"
        },
        {
          "indexed": true,
          "internalType": "uint256",
          "name": "id",
          "type": "uint256"
        }
      ],
      "name": "URI",
      "type": "event"
    },
    {
      "inputs": [
        {
          "internalType": "string",
          "name": "_tokenSymbol",
          "type": "string"
        },
        {
          "internalType": "address",
          "name": "_tokenAddress",
          "type": "address"
        },
        {
          "internalType": "address",
          "name": "_tokenPriceFeed",
          "type": "address"
        }
      ],
      "name": "addToken",
      "outputs": [],
      "stateMutability": "nonpayable",
      "type": "function"
    },
    {
      "inputs": [
        {
          "internalType": "address",
          "name": "account",
          "type": "address"
        },
        {
          "internalType": "uint256",
          "name": "id",
          "type": "uint256"
        }
      ],
      "name": "balanceOf",
      "outputs": [
        {
          "internalType": "uint256",
          "name": "",
          "type": "uint256"
        }
      ],
      "stateMutability": "view",
      "type": "function"
    },
    {
      "inputs": [
        {
          "internalType": "address[]",
          "name": "accounts",
          "type": "address[]"
        },
        {
          "internalType": "uint256[]",
          "name": "ids",
          "type": "uint256[]"
        }
      ],
      "name": "balanceOfBatch",
      "outputs": [
        {
          "internalType": "uint256[]",
          "name": "",
          "type": "uint256[]"
        }
      ],
      "stateMutability": "view",
      "type": "function"
    },
    {
      "inputs": [
        {
          "internalType": "uint24",
          "name": "",
          "type": "uint24"
        },
        {
          "internalType": "address",
          "name": "",
          "type": "address"
        }
      ],
      "name": "boxBalance",
      "outputs": [
        {
          "internalType": "uint256",
          "name": "",
          "type": "uint256"
        }
      ],
      "stateMutability": "view",
      "type": "function"
    },
    {
      "inputs": [
        {
          "internalType": "uint24",
          "name": "boxId",
          "type": "uint24"
        }
      ],
      "name": "buy",
      "outputs": [
        {
          "internalType": "uint256",
          "name": "boxTokenMinted",
          "type": "uint256"
        }
      ],
      "stateMutability": "payable",
      "type": "function"
    },
    {
      "inputs": [
        {
          "components": [
            {
              "internalType": "string",
              "name": "name",
              "type": "string"
            },
            {
              "internalType": "uint8",
              "name": "percentage",
              "type": "uint8"
            }
          ],
          "internalType": "struct BoxSpace.Token[]",
          "name": "tokens",
          "type": "tuple[]"
        }
      ],
      "name": "createBox",
      "outputs": [
        {
          "internalType": "uint256",
          "name": "boxId",
          "type": "uint256"
        }
      ],
      "stateMutability": "nonpayable",
      "type": "function"
    },
    {
      "inputs": [
        {
          "internalType": "uint256",
          "name": "id",
          "type": "uint256"
        }
      ],
      "name": "exists",
      "outputs": [
        {
          "internalType": "bool",
          "name": "",
          "type": "bool"
        }
      ],
      "stateMutability": "view",
      "type": "function"
    },
    {
      "inputs": [
        {
          "internalType": "uint24",
          "name": "boxId",
          "type": "uint24"
        },
        {
          "internalType": "uint256",
          "name": "tokenNumber",
          "type": "uint256"
        }
      ],
      "name": "getBoxDistribution",
      "outputs": [
        {
          "components": [
            {
              "internalType": "string",
              "name": "name",
              "type": "string"
            },
            {
              "internalType": "uint8",
              "name": "percentage",
              "type": "uint8"
            }
          ],
          "internalType": "struct BoxSpace.Token",
          "name": "",
          "type": "tuple"
        }
      ],
      "stateMutability": "view",
      "type": "function"
    },
    {
      "inputs": [
        {
          "internalType": "uint24",
          "name": "boxId",
          "type": "uint24"
        }
      ],
      "name": "getBoxTVL",
      "outputs": [
        {
          "internalType": "uint256",
          "name": "",
          "type": "uint256"
        }
      ],
      "stateMutability": "view",
      "type": "function"
    },
    {
      "inputs": [
        {
          "internalType": "uint24",
          "name": "boxId",
          "type": "uint24"
        }
      ],
      "name": "getBoxTokenPrice",
      "outputs": [
        {
          "internalType": "uint256",
          "name": "",
          "type": "uint256"
        }
      ],
      "stateMutability": "view",
      "type": "function"
    },
    {
      "inputs": [
        {
          "internalType": "address",
          "name": "_tokenPriceFeed",
          "type": "address"
        }
      ],
      "name": "getLatestPrice",
      "outputs": [
        {
          "internalType": "int256",
          "name": "",
          "type": "int256"
        }
      ],
      "stateMutability": "view",
      "type": "function"
    },
    {
      "inputs": [
        {
          "internalType": "uint24",
          "name": "boxId",
          "type": "uint24"
        }
      ],
      "name": "getNumberOfTokensInBox",
      "outputs": [
        {
          "internalType": "uint256",
          "name": "",
          "type": "uint256"
        }
      ],
      "stateMutability": "view",
      "type": "function"
    },
    {
      "inputs": [
        {
          "internalType": "address",
          "name": "account",
          "type": "address"
        },
        {
          "internalType": "address",
          "name": "operator",
          "type": "address"
        }
      ],
      "name": "isApprovedForAll",
      "outputs": [
        {
          "internalType": "bool",
          "name": "",
          "type": "bool"
        }
      ],
      "stateMutability": "view",
      "type": "function"
    },
    {
      "inputs": [],
      "name": "poolFee",
      "outputs": [
        {
          "internalType": "uint24",
          "name": "",
          "type": "uint24"
        }
      ],
      "stateMutability": "view",
      "type": "function"
    },
    {
      "inputs": [
        {
          "internalType": "address",
          "name": "from",
          "type": "address"
        },
        {
          "internalType": "address",
          "name": "to",
          "type": "address"
        },
        {
          "internalType": "uint256[]",
          "name": "ids",
          "type": "uint256[]"
        },
        {
          "internalType": "uint256[]",
          "name": "amounts",
          "type": "uint256[]"
        },
        {
          "internalType": "bytes",
          "name": "data",
          "type": "bytes"
        }
      ],
      "name": "safeBatchTransferFrom",
      "outputs": [],
      "stateMutability": "nonpayable",
      "type": "function"
    },
    {
      "inputs": [
        {
          "internalType": "address",
          "name": "from",
          "type": "address"
        },
        {
          "internalType": "address",
          "name": "to",
          "type": "address"
        },
        {
          "internalType": "uint256",
          "name": "id",
          "type": "uint256"
        },
        {
          "internalType": "uint256",
          "name": "amount",
          "type": "uint256"
        },
        {
          "internalType": "bytes",
          "name": "data",
          "type": "bytes"
        }
      ],
      "name": "safeTransferFrom",
      "outputs": [],
      "stateMutability": "nonpayable",
      "type": "function"
    },
    {
      "inputs": [
        {
          "internalType": "uint24",
          "name": "boxId",
          "type": "uint24"
        },
        {
          "internalType": "uint256",
          "name": "tokenSellAmount",
          "type": "uint256"
        }
      ],
      "name": "sell",
      "outputs": [
        {
          "internalType": "uint256",
          "name": "",
          "type": "uint256"
        }
      ],
      "stateMutability": "nonpayable",
      "type": "function"
    },
    {
      "inputs": [
        {
          "internalType": "address",
          "name": "operator",
          "type": "address"
        },
        {
          "internalType": "bool",
          "name": "approved",
          "type": "bool"
        }
      ],
      "name": "setApprovalForAll",
      "outputs": [],
      "stateMutability": "nonpayable",
      "type": "function"
    },
    {
      "inputs": [
        {
          "internalType": "bytes4",
          "name": "interfaceId",
          "type": "bytes4"
        }
      ],
      "name": "supportsInterface",
      "outputs": [
        {
          "internalType": "bool",
          "name": "",
          "type": "bool"
        }
      ],
      "stateMutability": "view",
      "type": "function"
    },
    {
      "inputs": [],
      "name": "swapRouter",
      "outputs": [
        {
          "internalType": "contract ISwapRouter",
          "name": "",
          "type": "address"
        }
      ],
      "stateMutability": "view",
      "type": "function"
    },
    {
      "inputs": [
        {
          "internalType": "uint256",
          "name": "id",
          "type": "uint256"
        }
      ],
      "name": "totalSupply",
      "outputs": [
        {
          "internalType": "uint256",
          "name": "",
          "type": "uint256"
        }
      ],
      "stateMutability": "view",
      "type": "function"
    },
    {
      "inputs": [
        {
          "internalType": "uint256",
          "name": "",
          "type": "uint256"
        }
      ],
      "name": "uri",
      "outputs": [
        {
          "internalType": "string",
          "name": "",
          "type": "string"
        }
      ],
      "stateMutability": "view",
      "type": "function"
    },
    {
      "inputs": [
        {
          "internalType": "uint256",
          "name": "amount",
          "type": "uint256"
        }
      ],
      "name": "withdrawFTM",
      "outputs": [],
      "stateMutability": "nonpayable",
      "type": "function"
    }
  ],
  "bytecode": "0x60a06040523480156200001157600080fd5b506040518060400160405280600181526020017f20000000000000000000000000000000000000000000000000000000000000008152506200005981620002a660201b60201c565b5033600560006101000a81548173ffffffffffffffffffffffffffffffffffffffff021916908373ffffffffffffffffffffffffffffffffffffffff16021790555073e592427a0aece92de3edee1f18e0157c0586156473ffffffffffffffffffffffffffffffffffffffff1660808173ffffffffffffffffffffffffffffffffffffffff168152505073e04676b9a9a2973bcb0d1478b5e1e9098bbb7f3d600a60006101000a81548173ffffffffffffffffffffffffffffffffffffffff021916908373ffffffffffffffffffffffffffffffffffffffff160217905550620001a36040518060400160405280600381526020017f66746d00000000000000000000000000000000000000000000000000000000008152506000600a60009054906101000a900473ffffffffffffffffffffffffffffffffffffffff16620002bb60201b60201c565b620002216040518060400160405280600481526020017f5766746d000000000000000000000000000000000000000000000000000000008152507321be370d5312f44cb42ce377bc9b8a0cef1a4c83600a60009054906101000a900473ffffffffffffffffffffffffffffffffffffffff16620002bb60201b60201c565b600860405162000231906200046c565b908152602001604051809103902060009054906101000a900473ffffffffffffffffffffffffffffffffffffffff16600460006101000a81548173ffffffffffffffffffffffffffffffffffffffff021916908373ffffffffffffffffffffffffffffffffffffffff160217905550620008e3565b8060029081620002b79190620006fd565b5050565b600560009054906101000a900473ffffffffffffffffffffffffffffffffffffffff1673ffffffffffffffffffffffffffffffffffffffff163373ffffffffffffffffffffffffffffffffffffffff16146200034e576040517f08c379a0000000000000000000000000000000000000000000000000000000008152600401620003459062000845565b60405180910390fd5b81600884604051620003619190620008ca565b908152602001604051809103902060006101000a81548173ffffffffffffffffffffffffffffffffffffffff021916908373ffffffffffffffffffffffffffffffffffffffff16021790555080600984604051620003c09190620008ca565b908152602001604051809103902060006101000a81548173ffffffffffffffffffffffffffffffffffffffff021916908373ffffffffffffffffffffffffffffffffffffffff160217905550505050565b600081905092915050565b7f5766746d00000000000000000000000000000000000000000000000000000000600082015250565b60006200045460048362000411565b915062000461826200041c565b600482019050919050565b6000620004798262000445565b9150819050919050565b600081519050919050565b7f4e487b7100000000000000000000000000000000000000000000000000000000600052604160045260246000fd5b7f4e487b7100000000000000000000000000000000000000000000000000000000600052602260045260246000fd5b600060028204905060018216806200050557607f821691505b6020821081036200051b576200051a620004bd565b5b50919050565b60008190508160005260206000209050919050565b60006020601f8301049050919050565b600082821b905092915050565b600060088302620005857fffffffffffffffffffffffffffffffffffffffffffffffffffffffffffffffff8262000546565b62000591868362000546565b95508019841693508086168417925050509392505050565b6000819050919050565b6000819050919050565b6000620005de620005d8620005d284620005a9565b620005b3565b620005a9565b9050919050565b6000819050919050565b620005fa83620005bd565b620006126200060982620005e5565b84845462000553565b825550505050565b600090565b620006296200061a565b62000636818484620005ef565b505050565b5b818110156200065e57620006526000826200061f565b6001810190506200063c565b5050565b601f821115620006ad57620006778162000521565b620006828462000536565b8101602085101562000692578190505b620006aa620006a18562000536565b8301826200063b565b50505b505050565b600082821c905092915050565b6000620006d260001984600802620006b2565b1980831691505092915050565b6000620006ed8383620006bf565b9150826002028217905092915050565b620007088262000483565b67ffffffffffffffff8111156200072457620007236200048e565b5b620007308254620004ec565b6200073d82828562000662565b600060209050601f83116001811462000775576000841562000760578287015190505b6200076c8582620006df565b865550620007dc565b601f198416620007858662000521565b60005b82811015620007af5784890151825560018201915060208501945060208101905062000788565b86831015620007cf5784890151620007cb601f891682620006bf565b8355505b6001600288020188555050505b505050505050565b600082825260208201905092915050565b7f4f776e657220616363657373206f6e6c79000000000000000000000000000000600082015250565b60006200082d601183620007e4565b91506200083a82620007f5565b602082019050919050565b6000602082019050818103600083015262000860816200081e565b9050919050565b60005b83811015620008875780820151818401526020810190506200086a565b60008484015250505050565b6000620008a08262000483565b620008ac818562000411565b9350620008be81856020860162000867565b80840191505092915050565b6000620008d8828462000893565b915081905092915050565b6080516167626200091460003960008181611f4301528181612e9801528181612f5e015261300001526167626000f3fe60806040526004361061013f5760003560e01c806392a90a87116100b6578063d772927c1161006f578063d772927c146104e4578063d863d54414610521578063deada8031461054a578063e985e9c514610587578063efb2e2aa146105c4578063f242432a146106015761013f565b806392a90a87146103a9578063991f6826146103e65780639fe204b614610423578063a22cb46514610453578063bd85b0391461047c578063c31c9c07146104b95761013f565b80631d41a873116101085780631d41a873146102635780632eb2c2d61461028c5780634e1273f4146102b55780634f558e79146102f25780635f51cca41461032f5780638cbc8b071461036c5761013f565b8062fdd58e1461014457806301ffc9a714610181578063089fe6aa146101be5780630e89341c146101e957806316345f1814610226575b600080fd5b34801561015057600080fd5b5061016b6004803603810190610166919061415b565b61062a565b60405161017891906141aa565b60405180910390f35b34801561018d57600080fd5b506101a860048036038101906101a3919061421d565b6106f2565b6040516101b59190614265565b60405180910390f35b3480156101ca57600080fd5b506101d36107d4565b6040516101e0919061429e565b60405180910390f35b3480156101f557600080fd5b50610210600480360381019061020b91906142b9565b6107da565b60405161021d9190614376565b60405180910390f35b34801561023257600080fd5b5061024d60048036038101906102489190614398565b61086e565b60405161025a91906143de565b60405180910390f35b34801561026f57600080fd5b5061028a600480360381019061028591906142b9565b6108f5565b005b34801561029857600080fd5b506102b360048036038101906102ae91906145f6565b6109ff565b005b3480156102c157600080fd5b506102dc60048036038101906102d79190614788565b610aa0565b6040516102e991906148be565b60405180910390f35b3480156102fe57600080fd5b50610319600480360381019061031491906142b9565b610bb9565b6040516103269190614265565b60405180910390f35b34801561033b57600080fd5b506103566004803603810190610351919061490c565b610bcd565b60405161036391906141aa565b60405180910390f35b34801561037857600080fd5b50610393600480360381019061038e919061490c565b610c56565b6040516103a091906141aa565b60405180910390f35b3480156103b557600080fd5b506103d060048036038101906103cb9190614939565b610d1e565b6040516103dd9190614a1c565b60405180910390f35b3480156103f257600080fd5b5061040d60048036038101906104089190614939565b610e84565b60405161041a91906141aa565b60405180910390f35b61043d6004803603810190610438919061490c565b611800565b60405161044a91906141aa565b60405180910390f35b34801561045f57600080fd5b5061047a60048036038101906104759190614a6a565b611f0e565b005b34801561048857600080fd5b506104a3600480360381019061049e91906142b9565b611f24565b6040516104b091906141aa565b60405180910390f35b3480156104c557600080fd5b506104ce611f41565b6040516104db9190614b09565b60405180910390f35b3480156104f057600080fd5b5061050b6004803603810190610506919061490c565b611f65565b60405161051891906141aa565b60405180910390f35b34801561052d57600080fd5b5061054860048036038101906105439190614bc5565b6124aa565b005b34801561055657600080fd5b50610571600480360381019061056c9190614c34565b6125f9565b60405161057e91906141aa565b60405180910390f35b34801561059357600080fd5b506105ae60048036038101906105a99190614c74565b61261e565b6040516105bb9190614265565b60405180910390f35b3480156105d057600080fd5b506105eb60048036038101906105e69190614e37565b6126b2565b6040516105f891906141aa565b60405180910390f35b34801561060d57600080fd5b5061062860048036038101906106239190614e80565b612a5c565b005b60008073ffffffffffffffffffffffffffffffffffffffff168373ffffffffffffffffffffffffffffffffffffffff160361069a576040517f08c379a000000000000000000000000000000000000000000000000000000000815260040161069190614f89565b60405180910390fd5b60008083815260200190815260200160002060008473ffffffffffffffffffffffffffffffffffffffff1673ffffffffffffffffffffffffffffffffffffffff16815260200190815260200160002054905092915050565b60007fd9b67a26000000000000000000000000000000000000000000000000000000007bffffffffffffffffffffffffffffffffffffffffffffffffffffffff1916827bffffffffffffffffffffffffffffffffffffffffffffffffffffffff191614806107bd57507f0e89341c000000000000000000000000000000000000000000000000000000007bffffffffffffffffffffffffffffffffffffffffffffffffffffffff1916827bffffffffffffffffffffffffffffffffffffffffffffffffffffffff1916145b806107cd57506107cc82612afd565b5b9050919050565b610bb881565b6060600280546107e990614fd8565b80601f016020809104026020016040519081016040528092919081815260200182805461081590614fd8565b80156108625780601f1061083757610100808354040283529160200191610862565b820191906000526020600020905b81548152906001019060200180831161084557829003601f168201915b50505050509050919050565b60008082905060008173ffffffffffffffffffffffffffffffffffffffff1663feaf968c6040518163ffffffff1660e01b815260040160a060405180830381865afa1580156108c1573d6000803e3d6000fd5b505050506040513d601f19601f820116820180604052508101906108e5919061508c565b5050509150508092505050919050565b600560009054906101000a900473ffffffffffffffffffffffffffffffffffffffff1673ffffffffffffffffffffffffffffffffffffffff163373ffffffffffffffffffffffffffffffffffffffff1614610985576040517f08c379a000000000000000000000000000000000000000000000000000000000815260040161097c90615153565b60405180910390fd5b60003373ffffffffffffffffffffffffffffffffffffffff16826040516109ab906151a4565b60006040518083038185875af1925050503d80600081146109e8576040519150601f19603f3d011682016040523d82523d6000602084013e6109ed565b606091505b50509050806109fb57600080fd5b5050565b610a07612b67565b73ffffffffffffffffffffffffffffffffffffffff168573ffffffffffffffffffffffffffffffffffffffff161480610a4d5750610a4c85610a47612b67565b61261e565b5b610a8c576040517f08c379a0000000000000000000000000000000000000000000000000000000008152600401610a839061522b565b60405180910390fd5b610a998585858585612b6f565b5050505050565b60608151835114610ae6576040517f08c379a0000000000000000000000000000000000000000000000000000000008152600401610add906152bd565b60405180910390fd5b6000835167ffffffffffffffff811115610b0357610b026143fe565b5b604051908082528060200260200182016040528015610b315781602001602082028036833780820191505090505b50905060005b8451811015610bae57610b7e858281518110610b5657610b556152dd565b5b6020026020010151858381518110610b7157610b706152dd565b5b602002602001015161062a565b828281518110610b9157610b906152dd565b5b60200260200101818152505080610ba79061533b565b9050610b37565b508091505092915050565b600080610bc583611f24565b119050919050565b600081600a60149054906101000a900462ffffff1662ffffff168162ffffff1610610c2d576040517f08c379a0000000000000000000000000000000000000000000000000000000008152600401610c24906153cf565b60405180910390fd5b600660008462ffffff1662ffffff16815260200190815260200160002080549050915050919050565b600081600a60149054906101000a900462ffffff1662ffffff168162ffffff1610610cb6576040517f08c379a0000000000000000000000000000000000000000000000000000000008152600401610cad906153cf565b60405180910390fd5b6000610cc184611f65565b90506000610cd38562ffffff16611f24565b905060008103610cef57670de0b6b3a764000093505050610d18565b806002600a610cfe9190615522565b83610d09919061556d565b610d1391906155de565b935050505b50919050565b610d26614096565b82600a60149054906101000a900462ffffff1662ffffff168162ffffff1610610d84576040517f08c379a0000000000000000000000000000000000000000000000000000000008152600401610d7b906153cf565b60405180910390fd5b600660008562ffffff1662ffffff1681526020019081526020016000208381548110610db357610db26152dd565b5b9060005260206000209060020201604051806040016040529081600082018054610ddc90614fd8565b80601f0160208091040260200160405190810160405280929190818152602001828054610e0890614fd8565b8015610e555780601f10610e2a57610100808354040283529160200191610e55565b820191906000526020600020905b815481529060010190602001808311610e3857829003601f168201915b505050505081526020016001820160009054906101000a900460ff1660ff1660ff168152505091505092915050565b600082600a60149054906101000a900462ffffff1662ffffff168162ffffff1610610ee4576040517f08c379a0000000000000000000000000000000000000000000000000000000008152600401610edb906153cf565b60405180910390fd5b6000610ef48562ffffff16611f24565b90506000816103e8606487610f09919061556d565b610f13919061556d565b610f1d91906155de565b90506000610f2a87610bcd565b9050600080600090505b8281101561172f576000600660008b62ffffff1662ffffff1681526020019081526020016000208281548110610f6d57610f6c6152dd565b5b9060005260206000209060020201604051806040016040529081600082018054610f9690614fd8565b80601f0160208091040260200160405190810160405280929190818152602001828054610fc290614fd8565b801561100f5780601f10610fe45761010080835404028352916020019161100f565b820191906000526020600020905b815481529060010190602001808311610ff257829003601f168201915b505050505081526020016001820160009054906101000a900460ff1660ff1660ff1681525050905060405160200161104690615666565b60405160208183030381529060405280519060200120816000015160405160200161107191906156ac565b6040516020818303038152906040528051906020012003611213576000600760008c62ffffff1662ffffff1681526020019081526020016000206000600884600001516040516110c191906156ac565b908152602001604051809103902060009054906101000a900473ffffffffffffffffffffffffffffffffffffffff1673ffffffffffffffffffffffffffffffffffffffff1673ffffffffffffffffffffffffffffffffffffffff1681526020019081526020016000205490506000620186a0878361113f919061556d565b61114991906155de565b905080600760008e62ffffff1662ffffff16815260200190815260200160002060006008866000015160405161117f91906156ac565b908152602001604051809103902060009054906101000a900473ffffffffffffffffffffffffffffffffffffffff1673ffffffffffffffffffffffffffffffffffffffff1673ffffffffffffffffffffffffffffffffffffffff16815260200190815260200160002060008282546111f791906156c3565b92505081905550808561120a91906156f7565b9450505061171b565b60405160200161122290615777565b60405160208183030381529060405280519060200120816000015160405160200161124d91906156ac565b604051602081830303815290604052805190602001200361147c576000600760008c62ffffff1662ffffff16815260200190815260200160002060006008846000015160405161129d91906156ac565b908152602001604051809103902060009054906101000a900473ffffffffffffffffffffffffffffffffffffffff1673ffffffffffffffffffffffffffffffffffffffff1673ffffffffffffffffffffffffffffffffffffffff1681526020019081526020016000205490506000620186a0878361131b919061556d565b61132591906155de565b905080600760008e62ffffff1662ffffff16815260200190815260200160002060006008866000015160405161135b91906156ac565b908152602001604051809103902060009054906101000a900473ffffffffffffffffffffffffffffffffffffffff1673ffffffffffffffffffffffffffffffffffffffff1673ffffffffffffffffffffffffffffffffffffffff16815260200190815260200160002060008282546113d391906156c3565b92505081905550600460009054906101000a900473ffffffffffffffffffffffffffffffffffffffff1673ffffffffffffffffffffffffffffffffffffffff16632e1a7d4d826040518263ffffffff1660e01b815260040161143591906141aa565b600060405180830381600087803b15801561144f57600080fd5b505af1158015611463573d6000803e3d6000fd5b50505050808561147391906156f7565b9450505061171a565b6000600760008c62ffffff1662ffffff1681526020019081526020016000206000600884600001516040516114b191906156ac565b908152602001604051809103902060009054906101000a900473ffffffffffffffffffffffffffffffffffffffff1673ffffffffffffffffffffffffffffffffffffffff1673ffffffffffffffffffffffffffffffffffffffff1681526020019081526020016000205490506000620186a0878361152f919061556d565b61153991906155de565b905080600760008e62ffffff1662ffffff16815260200190815260200160002060006008866000015160405161156f91906156ac565b908152602001604051809103902060009054906101000a900473ffffffffffffffffffffffffffffffffffffffff1673ffffffffffffffffffffffffffffffffffffffff1673ffffffffffffffffffffffffffffffffffffffff16815260200190815260200160002060008282546115e791906156c3565b925050819055506000611679826008866000015160405161160891906156ac565b908152602001604051809103902060009054906101000a900473ffffffffffffffffffffffffffffffffffffffff16600860405161164590615777565b908152602001604051809103902060009054906101000a900473ffffffffffffffffffffffffffffffffffffffff16612e90565b9050600460009054906101000a900473ffffffffffffffffffffffffffffffffffffffff1673ffffffffffffffffffffffffffffffffffffffff16632e1a7d4d826040518263ffffffff1660e01b81526004016116d691906141aa565b600060405180830381600087803b1580156116f057600080fd5b505af1158015611704573d6000803e3d6000fd5b50505050808661171491906156f7565b95505050505b5b5080806117279061533b565b915050610f34565b50611740338962ffffff168961302e565b60003373ffffffffffffffffffffffffffffffffffffffff1682604051611766906151a4565b60006040518083038185875af1925050503d80600081146117a3576040519150601f19603f3d011682016040523d82523d6000602084013e6117a8565b606091505b50509050806117b657600080fd5b7f3a8c7f8ee392a5f03a68614a07481b2744d70742e4402781016d459204313ac88989846040516117e9939291906157bd565b60405180910390a181965050505050505092915050565b600081600a60149054906101000a900462ffffff1662ffffff168162ffffff1610611860576040517f08c379a0000000000000000000000000000000000000000000000000000000008152600401611857906153cf565b60405180910390fd5b600034116118a3576040517f08c379a000000000000000000000000000000000000000000000000000000000815260040161189a90615840565b60405180910390fd5b60006118af8434613274565b905060006118bc85610bcd565b905060005b81811015611ea7576000600660008862ffffff1662ffffff16815260200190815260200160002082815481106118fa576118f96152dd565b5b906000526020600020906002020160405180604001604052908160008201805461192390614fd8565b80601f016020809104026020016040519081016040528092919081815260200182805461194f90614fd8565b801561199c5780601f106119715761010080835404028352916020019161199c565b820191906000526020600020905b81548152906001019060200180831161197f57829003601f168201915b505050505081526020016001820160009054906101000a900460ff1660ff1660ff168152505090506040516020016119d390615666565b6040516020818303038152906040528051906020012081600001516040516020016119fe91906156ac565b6040516020818303038152906040528051906020012003611af55760006064826020015160ff1634611a30919061556d565b611a3a91906155de565b905080600760008a62ffffff1662ffffff168152602001908152602001600020600060088560000151604051611a7091906156ac565b908152602001604051809103902060009054906101000a900473ffffffffffffffffffffffffffffffffffffffff1673ffffffffffffffffffffffffffffffffffffffff1673ffffffffffffffffffffffffffffffffffffffff1681526020019081526020016000206000828254611ae891906156f7565b9250508190555050611e93565b604051602001611b0490615777565b604051602081830303815290604052805190602001208160000151604051602001611b2f91906156ac565b6040516020818303038152906040528051906020012003611ca95760006064826020015160ff1634611b61919061556d565b611b6b91906155de565b9050600460009054906101000a900473ffffffffffffffffffffffffffffffffffffffff1673ffffffffffffffffffffffffffffffffffffffff1663d0e30db0826040518263ffffffff1660e01b81526004016000604051808303818588803b158015611bd757600080fd5b505af1158015611beb573d6000803e3d6000fd5b505050505080600760008a62ffffff1662ffffff168152602001908152602001600020600060088560000151604051611c2491906156ac565b908152602001604051809103902060009054906101000a900473ffffffffffffffffffffffffffffffffffffffff1673ffffffffffffffffffffffffffffffffffffffff1673ffffffffffffffffffffffffffffffffffffffff1681526020019081526020016000206000828254611c9c91906156f7565b9250508190555050611e92565b60006064826020015160ff1634611cc0919061556d565b611cca91906155de565b9050600460009054906101000a900473ffffffffffffffffffffffffffffffffffffffff1673ffffffffffffffffffffffffffffffffffffffff1663d0e30db0826040518263ffffffff1660e01b81526004016000604051808303818588803b158015611d3657600080fd5b505af1158015611d4a573d6000803e3d6000fd5b50505050506000611dda826008604051611d6390615777565b908152602001604051809103902060009054906101000a900473ffffffffffffffffffffffffffffffffffffffff1660088660000151604051611da691906156ac565b908152602001604051809103902060009054906101000a900473ffffffffffffffffffffffffffffffffffffffff16612e90565b905080600760008b62ffffff1662ffffff168152602001908152602001600020600060088660000151604051611e1091906156ac565b908152602001604051809103902060009054906101000a900473ffffffffffffffffffffffffffffffffffffffff1673ffffffffffffffffffffffffffffffffffffffff1673ffffffffffffffffffffffffffffffffffffffff1681526020019081526020016000206000828254611e8891906156f7565b9250508190555050505b5b508080611e9f9061533b565b9150506118c1565b50611ec8338662ffffff16846040518060200160405280600081525061335f565b7fb05532e21b444e9778dc1661bc462d41ba18ec113dc5e87d9d7a3849ff02d1e8853484604051611efb939291906157bd565b60405180910390a1819350505050919050565b611f20611f19612b67565b838361350f565b5050565b600060036000838152602001908152602001600020549050919050565b7f000000000000000000000000000000000000000000000000000000000000000081565b600081600a60149054906101000a900462ffffff1662ffffff168162ffffff1610611fc5576040517f08c379a0000000000000000000000000000000000000000000000000000000008152600401611fbc906153cf565b60405180910390fd5b6000611fd084610bcd565b9050600080600090505b8281101561249e576000600660008862ffffff1662ffffff1681526020019081526020016000208281548110612013576120126152dd565b5b906000526020600020906002020160405180604001604052908160008201805461203c90614fd8565b80601f016020809104026020016040519081016040528092919081815260200182805461206890614fd8565b80156120b55780601f1061208a576101008083540402835291602001916120b5565b820191906000526020600020905b81548152906001019060200180831161209857829003601f168201915b505050505081526020016001820160009054906101000a900460ff1660ff1660ff168152505090506040516020016120ec90615666565b60405160208183030381529060405280519060200120816000015160405160200161211791906156ac565b604051602081830303815290604052805190602001201480612186575060405160200161214390615777565b60405160208183030381529060405280519060200120816000015160405160200161216e91906156ac565b60405160208183030381529060405280519060200120145b15612290576000600760008962ffffff1662ffffff1681526020019081526020016000206000600884600001516040516121c091906156ac565b908152602001604051809103902060009054906101000a900473ffffffffffffffffffffffffffffffffffffffff1673ffffffffffffffffffffffffffffffffffffffff1673ffffffffffffffffffffffffffffffffffffffff1681526020019081526020016000205490506000612259600a60009054906101000a900473ffffffffffffffffffffffffffffffffffffffff1661086e565b905060006305f5e100828461226e919061556d565b61227891906155de565b9050808661228691906156f7565b955050505061248a565b6000600882600001516040516122a691906156ac565b908152602001604051809103902060009054906101000a900473ffffffffffffffffffffffffffffffffffffffff1673ffffffffffffffffffffffffffffffffffffffff1663313ce5676040518163ffffffff1660e01b8152600401602060405180830381865afa15801561231f573d6000803e3d6000fd5b505050506040513d601f19601f820116820180604052508101906123439190615875565b90506000600760008a62ffffff1662ffffff16815260200190815260200160002060006008856000015160405161237a91906156ac565b908152602001604051809103902060009054906101000a900473ffffffffffffffffffffffffffffffffffffffff1673ffffffffffffffffffffffffffffffffffffffff1673ffffffffffffffffffffffffffffffffffffffff1681526020019081526020016000205490506000612433600985600001516040516123ff91906156ac565b908152602001604051809103902060009054906101000a900473ffffffffffffffffffffffffffffffffffffffff1661086e565b905060006305f5e1008285601261244a91906158a2565b600a6124569190615522565b85612461919061556d565b61246b919061556d565b61247591906155de565b9050808761248391906156f7565b9650505050505b5080806124969061533b565b915050611fda565b50809350505050919050565b600560009054906101000a900473ffffffffffffffffffffffffffffffffffffffff1673ffffffffffffffffffffffffffffffffffffffff163373ffffffffffffffffffffffffffffffffffffffff161461253a576040517f08c379a000000000000000000000000000000000000000000000000000000000815260040161253190615153565b60405180910390fd5b8160088460405161254b91906156ac565b908152602001604051809103902060006101000a81548173ffffffffffffffffffffffffffffffffffffffff021916908373ffffffffffffffffffffffffffffffffffffffff160217905550806009846040516125a891906156ac565b908152602001604051809103902060006101000a81548173ffffffffffffffffffffffffffffffffffffffff021916908373ffffffffffffffffffffffffffffffffffffffff160217905550505050565b6007602052816000526040600020602052806000526040600020600091509150505481565b6000600160008473ffffffffffffffffffffffffffffffffffffffff1673ffffffffffffffffffffffffffffffffffffffff16815260200190815260200160002060008373ffffffffffffffffffffffffffffffffffffffff1673ffffffffffffffffffffffffffffffffffffffff16815260200190815260200160002060009054906101000a900460ff16905092915050565b6000600560009054906101000a900473ffffffffffffffffffffffffffffffffffffffff1673ffffffffffffffffffffffffffffffffffffffff163373ffffffffffffffffffffffffffffffffffffffff1614612744576040517f08c379a000000000000000000000000000000000000000000000000000000000815260040161273b90615153565b60405180910390fd5b600082519050612752614096565b600080600090505b838110156129aa5760405160200161277190615666565b6040516020818303038152906040528051906020012086828151811061279a576127996152dd565b5b6020026020010151600001516040516020016127b691906156ac565b604051602081830303815290604052805190602001201461289d57600073ffffffffffffffffffffffffffffffffffffffff1660088783815181106127fe576127fd6152dd565b5b60200260200101516000015160405161281791906156ac565b908152602001604051809103902060009054906101000a900473ffffffffffffffffffffffffffffffffffffffff1673ffffffffffffffffffffffffffffffffffffffff160361289c576040517f08c379a000000000000000000000000000000000000000000000000000000000815260040161289390615923565b60405180910390fd5b5b8581815181106128b0576128af6152dd565b5b60200260200101516000015183600001819052508581815181106128d7576128d66152dd565b5b602002602001015160200151836020019060ff16908160ff16815250508260200151826129049190615943565b915060066000600a60149054906101000a900462ffffff1662ffffff1662ffffff16815260200190815260200160002083908060018154018082558091505060019003906000526020600020906002020160009091909190915060008201518160000190816129739190615b1a565b5060208201518160010160006101000a81548160ff021916908360ff160217905550505080806129a29061533b565b91505061275a565b50600a601481819054906101000a900462ffffff16809291906129cc90615bec565b91906101000a81548162ffffff021916908362ffffff1602179055505060648160ff1614612a2f576040517f08c379a0000000000000000000000000000000000000000000000000000000008152600401612a2690615c63565b60405180910390fd5b6001600a60149054906101000a900462ffffff16612a4d9190615c83565b62ffffff169350505050919050565b612a64612b67565b73ffffffffffffffffffffffffffffffffffffffff168573ffffffffffffffffffffffffffffffffffffffff161480612aaa5750612aa985612aa4612b67565b61261e565b5b612ae9576040517f08c379a0000000000000000000000000000000000000000000000000000000008152600401612ae09061522b565b60405180910390fd5b612af6858585858561367b565b5050505050565b60007f01ffc9a7000000000000000000000000000000000000000000000000000000007bffffffffffffffffffffffffffffffffffffffffffffffffffffffff1916827bffffffffffffffffffffffffffffffffffffffffffffffffffffffff1916149050919050565b600033905090565b8151835114612bb3576040517f08c379a0000000000000000000000000000000000000000000000000000000008152600401612baa90615d2c565b60405180910390fd5b600073ffffffffffffffffffffffffffffffffffffffff168473ffffffffffffffffffffffffffffffffffffffff1603612c22576040517f08c379a0000000000000000000000000000000000000000000000000000000008152600401612c1990615dbe565b60405180910390fd5b6000612c2c612b67565b9050612c3c818787878787613916565b60005b8451811015612ded576000858281518110612c5d57612c5c6152dd565b5b602002602001015190506000858381518110612c7c57612c7b6152dd565b5b60200260200101519050600080600084815260200190815260200160002060008b73ffffffffffffffffffffffffffffffffffffffff1673ffffffffffffffffffffffffffffffffffffffff16815260200190815260200160002054905081811015612d1d576040517f08c379a0000000000000000000000000000000000000000000000000000000008152600401612d1490615e50565b60405180910390fd5b81810360008085815260200190815260200160002060008c73ffffffffffffffffffffffffffffffffffffffff1673ffffffffffffffffffffffffffffffffffffffff168152602001908152602001600020819055508160008085815260200190815260200160002060008b73ffffffffffffffffffffffffffffffffffffffff1673ffffffffffffffffffffffffffffffffffffffff1681526020019081526020016000206000828254612dd291906156f7565b9250508190555050505080612de69061533b565b9050612c3f565b508473ffffffffffffffffffffffffffffffffffffffff168673ffffffffffffffffffffffffffffffffffffffff168273ffffffffffffffffffffffffffffffffffffffff167f4a39dc06d4c0dbc64b70af90fd698a233a518aa5d07e595d983b8c0526c8f7fb8787604051612e64929190615e70565b60405180910390a4612e7a818787878787613ae6565b612e88818787878787613aee565b505050505050565b6000612ebd837f000000000000000000000000000000000000000000000000000000000000000086613cc5565b60006040518061010001604052808573ffffffffffffffffffffffffffffffffffffffff1681526020018473ffffffffffffffffffffffffffffffffffffffff168152602001610bb862ffffff1681526020013073ffffffffffffffffffffffffffffffffffffffff16815260200142815260200186815260200160008152602001600073ffffffffffffffffffffffffffffffffffffffff1681525090507f000000000000000000000000000000000000000000000000000000000000000073ffffffffffffffffffffffffffffffffffffffff1663414bf389826040518263ffffffff1660e01b8152600401612fb59190615f76565b6020604051808303816000875af1158015612fd4573d6000803e3d6000fd5b505050506040513d601f19601f82011682018060405250810190612ff89190615f92565b9150613026847f00000000000000000000000000000000000000000000000000000000000000006000613cc5565b509392505050565b600073ffffffffffffffffffffffffffffffffffffffff168373ffffffffffffffffffffffffffffffffffffffff160361309d576040517f08c379a000000000000000000000000000000000000000000000000000000000815260040161309490616031565b60405180910390fd5b60006130a7612b67565b905060006130b484613e1a565b905060006130c184613e1a565b90506130e183876000858560405180602001604052806000815250613916565b600080600087815260200190815260200160002060008873ffffffffffffffffffffffffffffffffffffffff1673ffffffffffffffffffffffffffffffffffffffff16815260200190815260200160002054905084811015613178576040517f08c379a000000000000000000000000000000000000000000000000000000000815260040161316f906160c3565b60405180910390fd5b84810360008088815260200190815260200160002060008973ffffffffffffffffffffffffffffffffffffffff1673ffffffffffffffffffffffffffffffffffffffff16815260200190815260200160002081905550600073ffffffffffffffffffffffffffffffffffffffff168773ffffffffffffffffffffffffffffffffffffffff168573ffffffffffffffffffffffffffffffffffffffff167fc3d58168c5ae7397731d063d5bbf3d657854427343f4c083240f7aacaa2d0f6289896040516132459291906160e3565b60405180910390a461326b84886000868660405180602001604052806000815250613ae6565b50505050505050565b600082600a60149054906101000a900462ffffff1662ffffff168162ffffff16106132d4576040517f08c379a00000000000000000000000000000000000000000000000000000000081526004016132cb906153cf565b60405180910390fd5b6000613301600a60009054906101000a900473ffffffffffffffffffffffffffffffffffffffff1661086e565b905060006305f5e1008286613316919061556d565b61332091906155de565b9050600061332d87610c56565b9050806002600a61333e9190615522565b83613349919061556d565b61335391906155de565b94505050505092915050565b600073ffffffffffffffffffffffffffffffffffffffff168473ffffffffffffffffffffffffffffffffffffffff16036133ce576040517f08c379a00000000000000000000000000000000000000000000000000000000081526004016133c59061617e565b60405180910390fd5b60006133d8612b67565b905060006133e585613e1a565b905060006133f285613e1a565b905061340383600089858589613916565b8460008088815260200190815260200160002060008973ffffffffffffffffffffffffffffffffffffffff1673ffffffffffffffffffffffffffffffffffffffff168152602001908152602001600020600082825461346291906156f7565b925050819055508673ffffffffffffffffffffffffffffffffffffffff16600073ffffffffffffffffffffffffffffffffffffffff168473ffffffffffffffffffffffffffffffffffffffff167fc3d58168c5ae7397731d063d5bbf3d657854427343f4c083240f7aacaa2d0f6289896040516134e09291906160e3565b60405180910390a46134f783600089858589613ae6565b61350683600089898989613e94565b50505050505050565b8173ffffffffffffffffffffffffffffffffffffffff168373ffffffffffffffffffffffffffffffffffffffff160361357d576040517f08c379a000000000000000000000000000000000000000000000000000000000815260040161357490616210565b60405180910390fd5b80600160008573ffffffffffffffffffffffffffffffffffffffff1673ffffffffffffffffffffffffffffffffffffffff16815260200190815260200160002060008473ffffffffffffffffffffffffffffffffffffffff1673ffffffffffffffffffffffffffffffffffffffff16815260200190815260200160002060006101000a81548160ff0219169083151502179055508173ffffffffffffffffffffffffffffffffffffffff168373ffffffffffffffffffffffffffffffffffffffff167f17307eab39ab6107e8899845ad3d59bd9653f200f220920489ca2b5937696c318360405161366e9190614265565b60405180910390a3505050565b600073ffffffffffffffffffffffffffffffffffffffff168473ffffffffffffffffffffffffffffffffffffffff16036136ea576040517f08c379a00000000000000000000000000000000000000000000000000000000081526004016136e190615dbe565b60405180910390fd5b60006136f4612b67565b9050600061370185613e1a565b9050600061370e85613e1a565b905061371e838989858589613916565b600080600088815260200190815260200160002060008a73ffffffffffffffffffffffffffffffffffffffff1673ffffffffffffffffffffffffffffffffffffffff168152602001908152602001600020549050858110156137b5576040517f08c379a00000000000000000000000000000000000000000000000000000000081526004016137ac90615e50565b60405180910390fd5b85810360008089815260200190815260200160002060008b73ffffffffffffffffffffffffffffffffffffffff1673ffffffffffffffffffffffffffffffffffffffff168152602001908152602001600020819055508560008089815260200190815260200160002060008a73ffffffffffffffffffffffffffffffffffffffff1673ffffffffffffffffffffffffffffffffffffffff168152602001908152602001600020600082825461386a91906156f7565b925050819055508773ffffffffffffffffffffffffffffffffffffffff168973ffffffffffffffffffffffffffffffffffffffff168573ffffffffffffffffffffffffffffffffffffffff167fc3d58168c5ae7397731d063d5bbf3d657854427343f4c083240f7aacaa2d0f628a8a6040516138e79291906160e3565b60405180910390a46138fd848a8a86868a613ae6565b61390b848a8a8a8a8a613e94565b505050505050505050565b61392486868686868661406b565b600073ffffffffffffffffffffffffffffffffffffffff168573ffffffffffffffffffffffffffffffffffffffff16036139d55760005b83518110156139d357828181518110613977576139766152dd565b5b602002602001015160036000868481518110613996576139956152dd565b5b6020026020010151815260200190815260200160002060008282546139bb91906156f7565b92505081905550806139cc9061533b565b905061395b565b505b600073ffffffffffffffffffffffffffffffffffffffff168473ffffffffffffffffffffffffffffffffffffffff1603613ade5760005b8351811015613adc576000848281518110613a2a57613a296152dd565b5b602002602001015190506000848381518110613a4957613a486152dd565b5b6020026020010151905060006003600084815260200190815260200160002054905081811015613aae576040517f08c379a0000000000000000000000000000000000000000000000000000000008152600401613aa5906162a2565b60405180910390fd5b818103600360008581526020019081526020016000208190555050505080613ad59061533b565b9050613a0c565b505b505050505050565b505050505050565b613b0d8473ffffffffffffffffffffffffffffffffffffffff16614073565b15613cbd578373ffffffffffffffffffffffffffffffffffffffff1663bc197c8187878686866040518663ffffffff1660e01b8152600401613b53959493929190616326565b6020604051808303816000875af1925050508015613b8f57506040513d601f19601f82011682018060405250810190613b8c91906163a3565b60015b613c3457613b9b6163dd565b806308c379a003613bf75750613baf6163ff565b80613bba5750613bf9565b806040517f08c379a0000000000000000000000000000000000000000000000000000000008152600401613bee9190614376565b60405180910390fd5b505b6040517f08c379a0000000000000000000000000000000000000000000000000000000008152600401613c2b90616501565b60405180910390fd5b63bc197c8160e01b7bffffffffffffffffffffffffffffffffffffffffffffffffffffffff1916817bffffffffffffffffffffffffffffffffffffffffffffffffffffffff191614613cbb576040517f08c379a0000000000000000000000000000000000000000000000000000000008152600401613cb290616593565b60405180910390fd5b505b505050505050565b6000808473ffffffffffffffffffffffffffffffffffffffff1663095ea7b360e01b8585604051602401613cfa9291906165b3565b604051602081830303815290604052907bffffffffffffffffffffffffffffffffffffffffffffffffffffffff19166020820180517bffffffffffffffffffffffffffffffffffffffffffffffffffffffff8381831617835250505050604051613d64919061660d565b6000604051808303816000865af19150503d8060008114613da1576040519150601f19603f3d011682016040523d82523d6000602084013e613da6565b606091505b5091509150818015613dd45750600081511480613dd3575080806020019051810190613dd29190616639565b5b5b613e13576040517f08c379a0000000000000000000000000000000000000000000000000000000008152600401613e0a906166b2565b60405180910390fd5b5050505050565b60606000600167ffffffffffffffff811115613e3957613e386143fe565b5b604051908082528060200260200182016040528015613e675781602001602082028036833780820191505090505b5090508281600081518110613e7f57613e7e6152dd565b5b60200260200101818152505080915050919050565b613eb38473ffffffffffffffffffffffffffffffffffffffff16614073565b15614063578373ffffffffffffffffffffffffffffffffffffffff1663f23a6e6187878686866040518663ffffffff1660e01b8152600401613ef99594939291906166d2565b6020604051808303816000875af1925050508015613f3557506040513d601f19601f82011682018060405250810190613f3291906163a3565b60015b613fda57613f416163dd565b806308c379a003613f9d5750613f556163ff565b80613f605750613f9f565b806040517f08c379a0000000000000000000000000000000000000000000000000000000008152600401613f949190614376565b60405180910390fd5b505b6040517f08c379a0000000000000000000000000000000000000000000000000000000008152600401613fd190616501565b60405180910390fd5b63f23a6e6160e01b7bffffffffffffffffffffffffffffffffffffffffffffffffffffffff1916817bffffffffffffffffffffffffffffffffffffffffffffffffffffffff191614614061576040517f08c379a000000000000000000000000000000000000000000000000000000000815260040161405890616593565b60405180910390fd5b505b505050505050565b505050505050565b6000808273ffffffffffffffffffffffffffffffffffffffff163b119050919050565b604051806040016040528060608152602001600060ff1681525090565b6000604051905090565b600080fd5b600080fd5b600073ffffffffffffffffffffffffffffffffffffffff82169050919050565b60006140f2826140c7565b9050919050565b614102816140e7565b811461410d57600080fd5b50565b60008135905061411f816140f9565b92915050565b6000819050919050565b61413881614125565b811461414357600080fd5b50565b6000813590506141558161412f565b92915050565b60008060408385031215614172576141716140bd565b5b600061418085828601614110565b925050602061419185828601614146565b9150509250929050565b6141a481614125565b82525050565b60006020820190506141bf600083018461419b565b92915050565b60007fffffffff0000000000000000000000000000000000000000000000000000000082169050919050565b6141fa816141c5565b811461420557600080fd5b50565b600081359050614217816141f1565b92915050565b600060208284031215614233576142326140bd565b5b600061424184828501614208565b91505092915050565b60008115159050919050565b61425f8161424a565b82525050565b600060208201905061427a6000830184614256565b92915050565b600062ffffff82169050919050565b61429881614280565b82525050565b60006020820190506142b3600083018461428f565b92915050565b6000602082840312156142cf576142ce6140bd565b5b60006142dd84828501614146565b91505092915050565b600081519050919050565b600082825260208201905092915050565b60005b83811015614320578082015181840152602081019050614305565b60008484015250505050565b6000601f19601f8301169050919050565b6000614348826142e6565b61435281856142f1565b9350614362818560208601614302565b61436b8161432c565b840191505092915050565b60006020820190508181036000830152614390818461433d565b905092915050565b6000602082840312156143ae576143ad6140bd565b5b60006143bc84828501614110565b91505092915050565b6000819050919050565b6143d8816143c5565b82525050565b60006020820190506143f360008301846143cf565b92915050565b600080fd5b7f4e487b7100000000000000000000000000000000000000000000000000000000600052604160045260246000fd5b6144368261432c565b810181811067ffffffffffffffff82111715614455576144546143fe565b5b80604052505050565b60006144686140b3565b9050614474828261442d565b919050565b600067ffffffffffffffff821115614494576144936143fe565b5b602082029050602081019050919050565b600080fd5b60006144bd6144b884614479565b61445e565b905080838252602082019050602084028301858111156144e0576144df6144a5565b5b835b8181101561450957806144f58882614146565b8452602084019350506020810190506144e2565b5050509392505050565b600082601f830112614528576145276143f9565b5b81356145388482602086016144aa565b91505092915050565b600080fd5b600067ffffffffffffffff821115614561576145606143fe565b5b61456a8261432c565b9050602081019050919050565b82818337600083830152505050565b600061459961459484614546565b61445e565b9050828152602081018484840111156145b5576145b4614541565b5b6145c0848285614577565b509392505050565b600082601f8301126145dd576145dc6143f9565b5b81356145ed848260208601614586565b91505092915050565b600080600080600060a08688031215614612576146116140bd565b5b600061462088828901614110565b955050602061463188828901614110565b945050604086013567ffffffffffffffff811115614652576146516140c2565b5b61465e88828901614513565b935050606086013567ffffffffffffffff81111561467f5761467e6140c2565b5b61468b88828901614513565b925050608086013567ffffffffffffffff8111156146ac576146ab6140c2565b5b6146b8888289016145c8565b9150509295509295909350565b600067ffffffffffffffff8211156146e0576146df6143fe565b5b602082029050602081019050919050565b60006147046146ff846146c5565b61445e565b90508083825260208201905060208402830185811115614727576147266144a5565b5b835b81811015614750578061473c8882614110565b845260208401935050602081019050614729565b5050509392505050565b600082601f83011261476f5761476e6143f9565b5b813561477f8482602086016146f1565b91505092915050565b6000806040838503121561479f5761479e6140bd565b5b600083013567ffffffffffffffff8111156147bd576147bc6140c2565b5b6147c98582860161475a565b925050602083013567ffffffffffffffff8111156147ea576147e96140c2565b5b6147f685828601614513565b9150509250929050565b600081519050919050565b600082825260208201905092915050565b6000819050602082019050919050565b61483581614125565b82525050565b6000614847838361482c565b60208301905092915050565b6000602082019050919050565b600061486b82614800565b614875818561480b565b93506148808361481c565b8060005b838110156148b1578151614898888261483b565b97506148a383614853565b925050600181019050614884565b5085935050505092915050565b600060208201905081810360008301526148d88184614860565b905092915050565b6148e981614280565b81146148f457600080fd5b50565b600081359050614906816148e0565b92915050565b600060208284031215614922576149216140bd565b5b6000614930848285016148f7565b91505092915050565b600080604083850312156149505761494f6140bd565b5b600061495e858286016148f7565b925050602061496f85828601614146565b9150509250929050565b600082825260208201905092915050565b6000614995826142e6565b61499f8185614979565b93506149af818560208601614302565b6149b88161432c565b840191505092915050565b600060ff82169050919050565b6149d9816149c3565b82525050565b600060408301600083015184820360008601526149fc828261498a565b9150506020830151614a1160208601826149d0565b508091505092915050565b60006020820190508181036000830152614a3681846149df565b905092915050565b614a478161424a565b8114614a5257600080fd5b50565b600081359050614a6481614a3e565b92915050565b60008060408385031215614a8157614a806140bd565b5b6000614a8f85828601614110565b9250506020614aa085828601614a55565b9150509250929050565b6000819050919050565b6000614acf614aca614ac5846140c7565b614aaa565b6140c7565b9050919050565b6000614ae182614ab4565b9050919050565b6000614af382614ad6565b9050919050565b614b0381614ae8565b82525050565b6000602082019050614b1e6000830184614afa565b92915050565b600067ffffffffffffffff821115614b3f57614b3e6143fe565b5b614b488261432c565b9050602081019050919050565b6000614b68614b6384614b24565b61445e565b905082815260208101848484011115614b8457614b83614541565b5b614b8f848285614577565b509392505050565b600082601f830112614bac57614bab6143f9565b5b8135614bbc848260208601614b55565b91505092915050565b600080600060608486031215614bde57614bdd6140bd565b5b600084013567ffffffffffffffff811115614bfc57614bfb6140c2565b5b614c0886828701614b97565b9350506020614c1986828701614110565b9250506040614c2a86828701614110565b9150509250925092565b60008060408385031215614c4b57614c4a6140bd565b5b6000614c59858286016148f7565b9250506020614c6a85828601614110565b9150509250929050565b60008060408385031215614c8b57614c8a6140bd565b5b6000614c9985828601614110565b9250506020614caa85828601614110565b9150509250929050565b600067ffffffffffffffff821115614ccf57614cce6143fe565b5b602082029050602081019050919050565b600080fd5b600080fd5b614cf3816149c3565b8114614cfe57600080fd5b50565b600081359050614d1081614cea565b92915050565b600060408284031215614d2c57614d2b614ce0565b5b614d36604061445e565b9050600082013567ffffffffffffffff811115614d5657614d55614ce5565b5b614d6284828501614b97565b6000830152506020614d7684828501614d01565b60208301525092915050565b6000614d95614d9084614cb4565b61445e565b90508083825260208201905060208402830185811115614db857614db76144a5565b5b835b81811015614dff57803567ffffffffffffffff811115614ddd57614ddc6143f9565b5b808601614dea8982614d16565b85526020850194505050602081019050614dba565b5050509392505050565b600082601f830112614e1e57614e1d6143f9565b5b8135614e2e848260208601614d82565b91505092915050565b600060208284031215614e4d57614e4c6140bd565b5b600082013567ffffffffffffffff811115614e6b57614e6a6140c2565b5b614e7784828501614e09565b91505092915050565b600080600080600060a08688031215614e9c57614e9b6140bd565b5b6000614eaa88828901614110565b9550506020614ebb88828901614110565b9450506040614ecc88828901614146565b9350506060614edd88828901614146565b925050608086013567ffffffffffffffff811115614efe57614efd6140c2565b5b614f0a888289016145c8565b9150509295509295909350565b7f455243313135353a2061646472657373207a65726f206973206e6f742061207660008201527f616c6964206f776e657200000000000000000000000000000000000000000000602082015250565b6000614f73602a836142f1565b9150614f7e82614f17565b604082019050919050565b60006020820190508181036000830152614fa281614f66565b9050919050565b7f4e487b7100000000000000000000000000000000000000000000000000000000600052602260045260246000fd5b60006002820490506001821680614ff057607f821691505b60208210810361500357615002614fa9565b5b50919050565b600069ffffffffffffffffffff82169050919050565b61502881615009565b811461503357600080fd5b50565b6000815190506150458161501f565b92915050565b615054816143c5565b811461505f57600080fd5b50565b6000815190506150718161504b565b92915050565b6000815190506150868161412f565b92915050565b600080600080600060a086880312156150a8576150a76140bd565b5b60006150b688828901615036565b95505060206150c788828901615062565b94505060406150d888828901615077565b93505060606150e988828901615077565b92505060806150fa88828901615036565b9150509295509295909350565b7f4f776e657220616363657373206f6e6c79000000000000000000000000000000600082015250565b600061513d6011836142f1565b915061514882615107565b602082019050919050565b6000602082019050818103600083015261516c81615130565b9050919050565b600081905092915050565b50565b600061518e600083615173565b91506151998261517e565b600082019050919050565b60006151af82615181565b9150819050919050565b7f455243313135353a2063616c6c6572206973206e6f7420746f6b656e206f776e60008201527f6572206f7220617070726f766564000000000000000000000000000000000000602082015250565b6000615215602e836142f1565b9150615220826151b9565b604082019050919050565b6000602082019050818103600083015261524481615208565b9050919050565b7f455243313135353a206163636f756e747320616e6420696473206c656e67746860008201527f206d69736d617463680000000000000000000000000000000000000000000000602082015250565b60006152a76029836142f1565b91506152b28261524b565b604082019050919050565b600060208201905081810360008301526152d68161529a565b9050919050565b7f4e487b7100000000000000000000000000000000000000000000000000000000600052603260045260246000fd5b7f4e487b7100000000000000000000000000000000000000000000000000000000600052601160045260246000fd5b600061534682614125565b91507fffffffffffffffffffffffffffffffffffffffffffffffffffffffffffffffff82036153785761537761530c565b5b600182019050919050565b7f496e76616c696420426f78494420706172616d657465722e0000000000000000600082015250565b60006153b96018836142f1565b91506153c482615383565b602082019050919050565b600060208201905081810360008301526153e8816153ac565b9050919050565b60008160011c9050919050565b6000808291508390505b6001851115615446578086048111156154225761542161530c565b5b60018516156154315780820291505b808102905061543f856153ef565b9450615406565b94509492505050565b60008261545f576001905061551b565b8161546d576000905061551b565b8160018114615483576002811461548d576154bc565b600191505061551b565b60ff84111561549f5761549e61530c565b5b8360020a9150848211156154b6576154b561530c565b5b5061551b565b5060208310610133831016604e8410600b84101617156154f15782820a9050838111156154ec576154eb61530c565b5b61551b565b6154fe84848460016153fc565b925090508184048111156155155761551461530c565b5b81810290505b9392505050565b600061552d82614125565b9150615538836149c3565b92506155657fffffffffffffffffffffffffffffffffffffffffffffffffffffffffffffffff848461544f565b905092915050565b600061557882614125565b915061558383614125565b925082820261559181614125565b915082820484148315176155a8576155a761530c565b5b5092915050565b7f4e487b7100000000000000000000000000000000000000000000000000000000600052601260045260246000fd5b60006155e982614125565b91506155f483614125565b925082615604576156036155af565b5b828204905092915050565b600081905092915050565b7f66746d0000000000000000000000000000000000000000000000000000000000600082015250565b600061565060038361560f565b915061565b8261561a565b600382019050919050565b600061567182615643565b9150819050919050565b6000615686826142e6565b615690818561560f565b93506156a0818560208601614302565b80840191505092915050565b60006156b8828461567b565b915081905092915050565b60006156ce82614125565b91506156d983614125565b92508282039050818111156156f1576156f061530c565b5b92915050565b600061570282614125565b915061570d83614125565b92508282019050808211156157255761572461530c565b5b92915050565b7f5766746d00000000000000000000000000000000000000000000000000000000600082015250565b600061576160048361560f565b915061576c8261572b565b600482019050919050565b600061578282615754565b9150819050919050565b60006157a76157a261579d84614280565b614aaa565b614125565b9050919050565b6157b78161578c565b82525050565b60006060820190506157d260008301866157ae565b6157df602083018561419b565b6157ec604083018461419b565b949350505050565b7f6d73672e76616c75652069732030000000000000000000000000000000000000600082015250565b600061582a600e836142f1565b9150615835826157f4565b602082019050919050565b600060208201905081810360008301526158598161581d565b9050919050565b60008151905061586f81614cea565b92915050565b60006020828403121561588b5761588a6140bd565b5b600061589984828501615860565b91505092915050565b60006158ad826149c3565b91506158b8836149c3565b9250828203905060ff8111156158d1576158d061530c565b5b92915050565b7f546f6b656e206e6f7420626f7820636f6d70617469626c652e00000000000000600082015250565b600061590d6019836142f1565b9150615918826158d7565b602082019050919050565b6000602082019050818103600083015261593c81615900565b9050919050565b600061594e826149c3565b9150615959836149c3565b9250828201905060ff8111156159725761597161530c565b5b92915050565b60008190508160005260206000209050919050565b60006020601f8301049050919050565b600082821b905092915050565b6000600883026159da7fffffffffffffffffffffffffffffffffffffffffffffffffffffffffffffffff8261599d565b6159e4868361599d565b95508019841693508086168417925050509392505050565b6000615a17615a12615a0d84614125565b614aaa565b614125565b9050919050565b6000819050919050565b615a31836159fc565b615a45615a3d82615a1e565b8484546159aa565b825550505050565b600090565b615a5a615a4d565b615a65818484615a28565b505050565b5b81811015615a8957615a7e600082615a52565b600181019050615a6b565b5050565b601f821115615ace57615a9f81615978565b615aa88461598d565b81016020851015615ab7578190505b615acb615ac38561598d565b830182615a6a565b50505b505050565b600082821c905092915050565b6000615af160001984600802615ad3565b1980831691505092915050565b6000615b0a8383615ae0565b9150826002028217905092915050565b615b23826142e6565b67ffffffffffffffff811115615b3c57615b3b6143fe565b5b615b468254614fd8565b615b51828285615a8d565b600060209050601f831160018114615b845760008415615b72578287015190505b615b7c8582615afe565b865550615be4565b601f198416615b9286615978565b60005b82811015615bba57848901518255600182019150602085019450602081019050615b95565b86831015615bd75784890151615bd3601f891682615ae0565b8355505b6001600288020188555050505b505050505050565b6000615bf782614280565b915062ffffff8203615c0c57615c0b61530c565b5b600182019050919050565b7f70657263656e7461676520213d20313030000000000000000000000000000000600082015250565b6000615c4d6011836142f1565b9150615c5882615c17565b602082019050919050565b60006020820190508181036000830152615c7c81615c40565b9050919050565b6000615c8e82614280565b9150615c9983614280565b9250828203905062ffffff811115615cb457615cb361530c565b5b92915050565b7f455243313135353a2069647320616e6420616d6f756e7473206c656e6774682060008201527f6d69736d61746368000000000000000000000000000000000000000000000000602082015250565b6000615d166028836142f1565b9150615d2182615cba565b604082019050919050565b60006020820190508181036000830152615d4581615d09565b9050919050565b7f455243313135353a207472616e7366657220746f20746865207a65726f20616460008201527f6472657373000000000000000000000000000000000000000000000000000000602082015250565b6000615da86025836142f1565b9150615db382615d4c565b604082019050919050565b60006020820190508181036000830152615dd781615d9b565b9050919050565b7f455243313135353a20696e73756666696369656e742062616c616e636520666f60008201527f72207472616e7366657200000000000000000000000000000000000000000000602082015250565b6000615e3a602a836142f1565b9150615e4582615dde565b604082019050919050565b60006020820190508181036000830152615e6981615e2d565b9050919050565b60006040820190508181036000830152615e8a8185614860565b90508181036020830152615e9e8184614860565b90509392505050565b615eb0816140e7565b82525050565b615ebf81614280565b82525050565b615ece816140c7565b82525050565b61010082016000820151615eeb6000850182615ea7565b506020820151615efe6020850182615ea7565b506040820151615f116040850182615eb6565b506060820151615f246060850182615ea7565b506080820151615f37608085018261482c565b5060a0820151615f4a60a085018261482c565b5060c0820151615f5d60c085018261482c565b5060e0820151615f7060e0850182615ec5565b50505050565b600061010082019050615f8c6000830184615ed4565b92915050565b600060208284031215615fa857615fa76140bd565b5b6000615fb684828501615077565b91505092915050565b7f455243313135353a206275726e2066726f6d20746865207a65726f206164647260008201527f6573730000000000000000000000000000000000000000000000000000000000602082015250565b600061601b6023836142f1565b915061602682615fbf565b604082019050919050565b6000602082019050818103600083015261604a8161600e565b9050919050565b7f455243313135353a206275726e20616d6f756e7420657863656564732062616c60008201527f616e636500000000000000000000000000000000000000000000000000000000602082015250565b60006160ad6024836142f1565b91506160b882616051565b604082019050919050565b600060208201905081810360008301526160dc816160a0565b9050919050565b60006040820190506160f8600083018561419b565b616105602083018461419b565b9392505050565b7f455243313135353a206d696e7420746f20746865207a65726f2061646472657360008201527f7300000000000000000000000000000000000000000000000000000000000000602082015250565b60006161686021836142f1565b91506161738261610c565b604082019050919050565b600060208201905081810360008301526161978161615b565b9050919050565b7f455243313135353a2073657474696e6720617070726f76616c2073746174757360008201527f20666f722073656c660000000000000000000000000000000000000000000000602082015250565b60006161fa6029836142f1565b91506162058261619e565b604082019050919050565b60006020820190508181036000830152616229816161ed565b9050919050565b7f455243313135353a206275726e20616d6f756e74206578636565647320746f7460008201527f616c537570706c79000000000000000000000000000000000000000000000000602082015250565b600061628c6028836142f1565b915061629782616230565b604082019050919050565b600060208201905081810360008301526162bb8161627f565b9050919050565b6162cb816140e7565b82525050565b600081519050919050565b600082825260208201905092915050565b60006162f8826162d1565b61630281856162dc565b9350616312818560208601614302565b61631b8161432c565b840191505092915050565b600060a08201905061633b60008301886162c2565b61634860208301876162c2565b818103604083015261635a8186614860565b9050818103606083015261636e8185614860565b9050818103608083015261638281846162ed565b90509695505050505050565b60008151905061639d816141f1565b92915050565b6000602082840312156163b9576163b86140bd565b5b60006163c78482850161638e565b91505092915050565b60008160e01c9050919050565b600060033d11156163fc5760046000803e6163f96000516163d0565b90505b90565b600060443d1061648c576164116140b3565b60043d036004823e80513d602482011167ffffffffffffffff8211171561643957505061648c565b808201805167ffffffffffffffff811115616457575050505061648c565b80602083010160043d03850181111561647457505050505061648c565b6164838260200185018661442d565b82955050505050505b90565b7f455243313135353a207472616e7366657220746f206e6f6e2d4552433131353560008201527f526563656976657220696d706c656d656e746572000000000000000000000000602082015250565b60006164eb6034836142f1565b91506164f68261648f565b604082019050919050565b6000602082019050818103600083015261651a816164de565b9050919050565b7f455243313135353a204552433131353552656365697665722072656a6563746560008201527f6420746f6b656e73000000000000000000000000000000000000000000000000602082015250565b600061657d6028836142f1565b915061658882616521565b604082019050919050565b600060208201905081810360008301526165ac81616570565b9050919050565b60006040820190506165c860008301856162c2565b6165d5602083018461419b565b9392505050565b60006165e7826162d1565b6165f18185615173565b9350616601818560208601614302565b80840191505092915050565b600061661982846165dc565b915081905092915050565b60008151905061663381614a3e565b92915050565b60006020828403121561664f5761664e6140bd565b5b600061665d84828501616624565b91505092915050565b7f5341000000000000000000000000000000000000000000000000000000000000600082015250565b600061669c6002836142f1565b91506166a782616666565b602082019050919050565b600060208201905081810360008301526166cb8161668f565b9050919050565b600060a0820190506166e760008301886162c2565b6166f460208301876162c2565b616701604083018661419b565b61670e606083018561419b565b818103608083015261672081846162ed565b9050969550505050505056fea264697066735822122022a03c43fa4f2c2f2f5e6a94a79e02f13395b6abe8fb663eb6062ea36e6e39a964736f6c63430008120033",
  "linkReferences": {},
  "deployedLinkReferences": {}
}